{
  "_format": "hh-sol-artifact-1",
  "contractName": "DarkForest",
  "sourceName": "contracts/darkforest.sol",
  "abi": [
    {
      "inputs": [
        {
          "internalType": "address",
          "name": "verifier_address",
          "type": "address"
        },
        {
          "internalType": "address",
          "name": "move_verifier_address",
          "type": "address"
        }
      ],
      "stateMutability": "nonpayable",
      "type": "constructor"
    },
    {
      "anonymous": false,
      "inputs": [
        {
          "indexed": false,
          "internalType": "uint256",
          "name": "player_id",
          "type": "uint256"
        },
        {
          "indexed": false,
          "internalType": "uint256",
          "name": "prevloc",
          "type": "uint256"
        },
        {
          "indexed": false,
          "internalType": "uint256",
          "name": "newloc",
          "type": "uint256"
        },
        {
          "indexed": false,
          "internalType": "uint256",
          "name": "collected_resources",
          "type": "uint256"
        },
        {
          "indexed": false,
          "internalType": "uint256",
          "name": "collecting_resources",
          "type": "uint256"
        }
      ],
      "name": "Move",
      "type": "event"
    },
    {
      "anonymous": false,
      "inputs": [
        {
          "indexed": false,
          "internalType": "bool",
          "name": "isPlanet",
          "type": "bool"
        },
        {
          "indexed": false,
          "internalType": "uint256",
          "name": "resources",
          "type": "uint256"
        }
      ],
      "name": "PlanetDetails",
      "type": "event"
    },
    {
      "anonymous": false,
      "inputs": [
        {
          "indexed": false,
          "internalType": "uint256",
          "name": "player_id",
          "type": "uint256"
        },
        {
          "indexed": false,
          "internalType": "uint256",
          "name": "location",
          "type": "uint256"
        },
        {
          "indexed": false,
          "internalType": "uint256",
          "name": "arrival_time",
          "type": "uint256"
        },
        {
          "indexed": false,
          "internalType": "uint256",
          "name": "collected_resources",
          "type": "uint256"
        },
        {
          "indexed": false,
          "internalType": "uint256",
          "name": "collecting_resources",
          "type": "uint256"
        }
      ],
      "name": "PlayerDetails",
      "type": "event"
    },
    {
      "anonymous": false,
      "inputs": [
        {
          "indexed": false,
          "internalType": "uint256",
          "name": "loc",
          "type": "uint256"
        },
        {
          "indexed": false,
          "internalType": "uint256",
          "name": "num_players",
          "type": "uint256"
        }
      ],
      "name": "Spawn",
      "type": "event"
    },
    {
      "inputs": [
        {
          "internalType": "uint256",
          "name": "",
          "type": "uint256"
        }
      ],
      "name": "all_locations",
      "outputs": [
        {
          "internalType": "uint256",
          "name": "",
          "type": "uint256"
        }
      ],
      "stateMutability": "view",
      "type": "function"
    },
    {
      "inputs": [],
      "name": "get_leaderboard",
      "outputs": [
        {
          "internalType": "uint256[]",
          "name": "",
          "type": "uint256[]"
        }
      ],
      "stateMutability": "view",
      "type": "function"
    },
    {
      "inputs": [
        {
          "internalType": "uint256",
          "name": "location_hash",
          "type": "uint256"
        }
      ],
      "name": "get_planet_details",
      "outputs": [
        {
          "internalType": "bool",
          "name": "isPlanet",
          "type": "bool"
        },
        {
          "internalType": "uint256",
          "name": "resources",
          "type": "uint256"
        }
      ],
      "stateMutability": "view",
      "type": "function"
    },
    {
      "inputs": [
        {
          "internalType": "uint256",
          "name": "location",
          "type": "uint256"
        }
      ],
      "name": "get_players_at",
      "outputs": [],
      "stateMutability": "nonpayable",
      "type": "function"
    },
    {
      "inputs": [
        {
          "internalType": "uint256[2]",
          "name": "a",
          "type": "uint256[2]"
        },
        {
          "internalType": "uint256[2][2]",
          "name": "b",
          "type": "uint256[2][2]"
        },
        {
          "internalType": "uint256[2]",
          "name": "c",
          "type": "uint256[2]"
        },
        {
          "internalType": "uint256[2]",
          "name": "input",
          "type": "uint256[2]"
        },
        {
          "internalType": "uint256",
          "name": "collect_amount",
          "type": "uint256"
        }
      ],
      "name": "move_player",
      "outputs": [],
      "stateMutability": "nonpayable",
      "type": "function"
    },
    {
      "inputs": [],
      "name": "num_players",
      "outputs": [
        {
          "internalType": "uint256",
          "name": "",
          "type": "uint256"
        }
      ],
      "stateMutability": "view",
      "type": "function"
    },
    {
      "inputs": [
        {
          "internalType": "uint256",
          "name": "location_hash",
          "type": "uint256"
        }
      ],
      "name": "planet_details",
      "outputs": [
        {
          "internalType": "bool",
          "name": "isPlanet",
          "type": "bool"
        },
        {
          "internalType": "uint256",
          "name": "resources",
          "type": "uint256"
        }
      ],
      "stateMutability": "nonpayable",
      "type": "function"
    },
    {
      "inputs": [
        {
          "internalType": "uint256[2]",
          "name": "a",
          "type": "uint256[2]"
        },
        {
          "internalType": "uint256[2][2]",
          "name": "b",
          "type": "uint256[2][2]"
        },
        {
          "internalType": "uint256[2]",
          "name": "c",
          "type": "uint256[2]"
        },
        {
          "internalType": "uint256[1]",
          "name": "input",
          "type": "uint256[1]"
        }
      ],
      "name": "spawn_player",
      "outputs": [],
      "stateMutability": "nonpayable",
      "type": "function"
    },
    {
      "inputs": [
        {
          "internalType": "uint256",
          "name": "location_hash",
          "type": "uint256"
        },
        {
          "internalType": "uint256",
          "name": "resources",
          "type": "uint256"
        }
      ],
      "name": "update_planet_details",
      "outputs": [],
      "stateMutability": "nonpayable",
      "type": "function"
    }
  ],
  "bytecode": "0x608060405260006002553480156200001657600080fd5b50604051620027ed380380620027ed83398181016040528101906200003c91906200012f565b816000806101000a81548173ffffffffffffffffffffffffffffffffffffffff021916908373ffffffffffffffffffffffffffffffffffffffff16021790555080600160006101000a81548173ffffffffffffffffffffffffffffffffffffffff021916908373ffffffffffffffffffffffffffffffffffffffff160217905550505062000176565b600080fd5b600073ffffffffffffffffffffffffffffffffffffffff82169050919050565b6000620000f782620000ca565b9050919050565b6200010981620000ea565b81146200011557600080fd5b50565b6000815190506200012981620000fe565b92915050565b60008060408385031215620001495762000148620000c5565b5b6000620001598582860162000118565b92505060206200016c8582860162000118565b9150509250929050565b61266780620001866000396000f3fe608060405234801561001057600080fd5b50600436106100935760003560e01c80634aff1c7b116100665780634aff1c7b1461010a57806380d8e8931461013a578063be7c82a11461016b578063c233091914610187578063e316d50a146101a557610093565b8063275fc1d414610098578063332d2b87146100b457806334822b98146100d2578063400dc91a146100ee575b600080fd5b6100b260048036038101906100ad9190611781565b6101d6565b005b6100bc610452565b6040516100c991906117bd565b60405180910390f35b6100ec60048036038101906100e791906119d0565b610458565b005b61010860048036038101906101039190611a4e565b610c51565b005b610124600480360381019061011f9190611781565b610c70565b60405161013191906117bd565b60405180910390f35b610154600480360381019061014f9190611781565b610c94565b604051610162929190611aa9565b60405180910390f35b61018560048036038101906101809190611b83565b610e32565b005b61018f611249565b60405161019c9190611caa565b60405180910390f35b6101bf60048036038101906101ba9190611781565b611463565b6040516101cd929190611aa9565b60405180910390f35b6004600082815260200190815260200160002060050160009054906101000a900460ff16156102ad577f9aabfbc84251566cbae1d855c1dc51f5704f7a8ff05898b8ab350a65ce506670600460008381526020019081526020016000206000015460046000848152602001908152602001600020600101546004600085815260200190815260200160002060020154600460008681526020019081526020016000206003015460046000878152602001908152602001600020600401546040516102a4959493929190611ccc565b60405180910390a15b60006006600083815260200190815260200160002080549050111561044f5760005b600660008381526020019081526020016000208054905081101561044d577f9aabfbc84251566cbae1d855c1dc51f5704f7a8ff05898b8ab350a65ce50667060066000848152602001908152602001600020828154811061033357610332611d1f565b5b90600052602060002090600602016000015460066000858152602001908152602001600020838154811061036a57610369611d1f565b5b9060005260206000209060060201600101546006600086815260200190815260200160002084815481106103a1576103a0611d1f565b5b9060005260206000209060060201600201546006600087815260200190815260200160002085815481106103d8576103d7611d1f565b5b90600052602060002090600602016003015460066000888152602001908152602001600020868154811061040f5761040e611d1f565b5b906000526020600020906006020160040154604051610432959493929190611ccc565b60405180910390a1808061044590611d7d565b9150506102cf565b505b50565b60025481565b60008260006002811061046e5761046d611d1f565b5b6020020151905060008360016002811061048b5761048a611d1f565b5b6020020151905060008061049e84610c94565b8093508192505050600160009054906101000a900473ffffffffffffffffffffffffffffffffffffffff1673ffffffffffffffffffffffffffffffffffffffff1663f5c9d69e8a8a8a8a6040518563ffffffff1660e01b81526004016105079493929190611f48565b602060405180830381865afa158015610524573d6000803e3d6000fd5b505050506040513d601f19601f820116820180604052508101906105489190611fbb565b610587576040517f08c379a000000000000000000000000000000000000000000000000000000000815260040161057e90612045565b60405180910390fd5b6004600084815260200190815260200160002060050160009054906101000a900460ff166105ea576040517f08c379a00000000000000000000000000000000000000000000000000000000081526004016105e1906120d7565b60405180910390fd5b601e600460008581526020019081526020016000206002015461060d91906120f7565b421161064e576040517f08c379a000000000000000000000000000000000000000000000000000000000815260040161064590612199565b60405180910390fd5b6000851015801561065f5750818511155b61069e576040517f08c379a00000000000000000000000000000000000000000000000000000000081526004016106959061222b565b60405180910390fd5b6000600460008581526020019081526020016000206040518060c001604052908160008201548152602001600182015481526020016002820154815260200160038201548152602001600482015481526020016005820160009054906101000a900460ff1615151515815250509050838514610b625780608001518160600181815250506000816080018181525050848160200181815250506004600086815260200190815260200160002060050160009054906101000a900460ff16156108e8576000600460008781526020019081526020016000206040518060c001604052908160008201548152602001600182015481526020016002820154815260200160038201548152602001600482015481526020016005820160009054906101000a900460ff16151515158152505090508060800151826080018181525050600081608001818152505060066000878152602001908152602001600020819080600181540180825580915050600190039060005260206000209060060201600090919091909150600082015181600001556020820151816001015560408201518160020155606082015181600301556080820151816004015560a08201518160050160006101000a81548160ff02191690831515021790555050508160046000888152602001908152602001600020600082015181600001556020820151816001015560408201518160020155606082015181600301556080820151816004015560a08201518160050160006101000a81548160ff02191690831515021790555090505050610980565b85816080018181516108fa91906120f7565b91508181525050610916858785610911919061224b565b610c51565b8060046000878152602001908152602001600020600082015181600001556020820151816001015560408201518160020155606082015181600301556080820151816004015560a08201518160050160006101000a81548160ff0219169083151502179055509050505b6004600085815260200190815260200160002060008082016000905560018201600090556002820160009055600382016000905560048201600090556005820160006101000a81549060ff021916905550506003859080600181540180825580915050600190039060005260206000200160009091909190915055600060066000868152602001908152602001600020805490501115610b5d576006600085815260200190815260200160002060016006600087815260200190815260200160002080549050610a50919061224b565b81548110610a6157610a60611d1f565b5b90600052602060002090600602016004600086815260200190815260200160002060008201548160000155600182015481600101556002820154816002015560038201548160030155600482015481600401556005820160009054906101000a900460ff168160050160006101000a81548160ff02191690831515021790555090505060066000858152602001908152602001600020805480610b0757610b0661227f565b5b600190038181906000526020600020906006020160008082016000905560018201600090556002820160009055600382016000905560048201600090556005820160006101000a81549060ff0219169055505090555b610bfa565b8581608001818151610b7491906120f7565b91508181525050610b90858785610b8b919061224b565b610c51565b8060046000878152602001908152602001600020600082015181600001556020820151816001015560408201518160020155606082015181600301556080820151816004015560a08201518160050160006101000a81548160ff0219169083151502179055509050505b7f190107d69f78b5645101fffd76c66dc398cef80803e1f7e0449d0509bce98c028160000151858784606001518560800151604051610c3d959493929190611ccc565b60405180910390a150505050505050505050565b8060076000848152602001908152602001600020600101819055505050565b60038181548110610c8057600080fd5b906000526020600020016000915090505481565b6000806007600084815260200190815260200160002060020160009054906101000a900460ff1615610d04576007600084815260200190815260200160002060000160009054906101000a900460ff16600760008581526020019081526020016000206001015491509150610e2d565b6000600484610d1391906122dd565b90506000811415610d2b576000925060009150610d6c565b6001811415610d41576001925060019150610d6b565b6002811415610d57576001925060029150610d6a565b6003811415610d695760019250600391505b5b5b5b60405180606001604052808415158152602001838152602001600115158152506007600086815260200190815260200160002060008201518160000160006101000a81548160ff0219169083151502179055506020820151816001015560408201518160020160006101000a81548160ff0219169083151502179055509050506007600085815260200190815260200160002060000160009054906101000a900460ff16600760008681526020019081526020016000206001015492509250505b915091565b600081600060018110610e4857610e47611d1f565b5b60200201519050610e8e6040518060400160405280601f81526020017f537061776e696e6720706c61796572206174206c6f636174696f6e3a2025730081525082611542565b610ef06040518060400160405280602081526020017f506c617965722070726573656e74206174206c6f636174696f6e203a202573208152506004600084815260200190815260200160002060050160009054906101000a900460ff166115de565b60008054906101000a900473ffffffffffffffffffffffffffffffffffffffff1673ffffffffffffffffffffffffffffffffffffffff166343753b4d868686866040518563ffffffff1660e01b8152600401610f4f9493929190612392565b602060405180830381865afa158015610f6c573d6000803e3d6000fd5b505050506040513d601f19601f82011682018060405250810190610f909190611fbb565b610fcf576040517f08c379a0000000000000000000000000000000000000000000000000000000008152600401610fc690612045565b60405180910390fd5b6004600082815260200190815260200160002060050160009054906101000a900460ff1615611033576040517f08c379a000000000000000000000000000000000000000000000000000000000815260040161102a90612425565b60405180910390fd5b6005600082815260200190815260200160002060010160009054906101000a900460ff161580611085575061012c600560008381526020019081526020016000206000015461108291906120f7565b42115b6110c4576040517f08c379a00000000000000000000000000000000000000000000000000000000081526004016110bb906124b7565b60405180910390fd5b6001600260008282546110d791906120f7565b9250508190555060006040518060c00160405280600254815260200183815260200142815260200160008152602001600081526020016001151581525090508060046000848152602001908152602001600020600082015181600001556020820151816001015560408201518160020155606082015181600301556080820151816004015560a08201518160050160006101000a81548160ff0219169083151502179055509050506000604051806040016040528042815260200160011515815250905080600560008581526020019081526020016000206000820151816000015560208201518160010160006101000a81548160ff02191690831515021790555090505060038390806001815401808255809150506001900390600052602060002001600090919091909150557f30eea052b4e42ea89e375d8f32c81186ca4221e4d4e5834fd4d1af38d2b4428e836002546040516112389291906124d7565b60405180910390a150505050505050565b60606000805b6003805490508110156112c657600460006003838154811061127457611273611d1f565b5b9060005260206000200154815260200190815260200160002060050160009054906101000a900460ff16156112b3576001826112b091906120f7565b91505b80806112be90611d7d565b91505061124f565b5060008160026112d69190612500565b67ffffffffffffffff8111156112ef576112ee6117ee565b5b60405190808252806020026020018201604052801561131d5781602001602082028036833780820191505090505b5090506000805b60038054905081101561144f57600460006003838154811061134957611348611d1f565b5b9060005260206000200154815260200190815260200160002060050160009054906101000a900460ff161561143c5760046000600383815481106113905761138f611d1f565b5b90600052602060002001548152602001908152602001600020600001548383815181106113c0576113bf611d1f565b5b60200260200101818152505060046000600383815481106113e4576113e3611d1f565b5b90600052602060002001548152602001908152602001600020600301548360018461140f91906120f7565b815181106114205761141f611d1f565b5b60200260200101818152505060028261143991906120f7565b91505b808061144790611d7d565b915050611324565b5061145a825161167a565b81935050505090565b6000806007600084815260200190815260200160002060020160009054906101000a900460ff16156114d3576007600084815260200190815260200160002060000160009054906101000a900460ff1660076000858152602001908152602001600020600101549150915061153d565b60006004846114e291906122dd565b905060008114156114fa57600092506000915061153b565b600181141561151057600192506001915061153a565b6002811415611526576001925060029150611539565b60038114156115385760019250600391505b5b5b5b505b915091565b6115da82826040516024016115589291906125d1565b6040516020818303038152906040527f9710a9d0000000000000000000000000000000000000000000000000000000007bffffffffffffffffffffffffffffffffffffffffffffffffffffffff19166020820180517bffffffffffffffffffffffffffffffffffffffffffffffffffffffff8381831617835250505050611713565b5050565b61167682826040516024016115f4929190612601565b6040516020818303038152906040527fc3b55635000000000000000000000000000000000000000000000000000000007bffffffffffffffffffffffffffffffffffffffffffffffffffffffff19166020820180517bffffffffffffffffffffffffffffffffffffffffffffffffffffffff8381831617835250505050611713565b5050565b6117108160405160240161168e91906117bd565b6040516020818303038152906040527ff5b1bba9000000000000000000000000000000000000000000000000000000007bffffffffffffffffffffffffffffffffffffffffffffffffffffffff19166020820180517bffffffffffffffffffffffffffffffffffffffffffffffffffffffff8381831617835250505050611713565b50565b60008151905060006a636f6e736f6c652e6c6f679050602083016000808483855afa5050505050565b6000604051905090565b600080fd5b6000819050919050565b61175e8161174b565b811461176957600080fd5b50565b60008135905061177b81611755565b92915050565b60006020828403121561179757611796611746565b5b60006117a58482850161176c565b91505092915050565b6117b78161174b565b82525050565b60006020820190506117d260008301846117ae565b92915050565b600080fd5b6000601f19601f8301169050919050565b7f4e487b7100000000000000000000000000000000000000000000000000000000600052604160045260246000fd5b611826826117dd565b810181811067ffffffffffffffff82111715611845576118446117ee565b5b80604052505050565b600061185861173c565b9050611864828261181d565b919050565b600067ffffffffffffffff821115611884576118836117ee565b5b602082029050919050565b600080fd5b60006118a76118a284611869565b61184e565b905080602084028301858111156118c1576118c061188f565b5b835b818110156118ea57806118d6888261176c565b8452602084019350506020810190506118c3565b5050509392505050565b600082601f830112611909576119086117d8565b5b6002611916848285611894565b91505092915050565b600067ffffffffffffffff82111561193a576119396117ee565b5b602082029050919050565b60006119586119538461191f565b61184e565b905080604084028301858111156119725761197161188f565b5b835b8181101561199b578061198788826118f4565b845260208401935050604081019050611974565b5050509392505050565b600082601f8301126119ba576119b96117d8565b5b60026119c7848285611945565b91505092915050565b600080600080600061016086880312156119ed576119ec611746565b5b60006119fb888289016118f4565b9550506040611a0c888289016119a5565b94505060c0611a1d888289016118f4565b935050610100611a2f888289016118f4565b925050610140611a418882890161176c565b9150509295509295909350565b60008060408385031215611a6557611a64611746565b5b6000611a738582860161176c565b9250506020611a848582860161176c565b9150509250929050565b60008115159050919050565b611aa381611a8e565b82525050565b6000604082019050611abe6000830185611a9a565b611acb60208301846117ae565b9392505050565b600067ffffffffffffffff821115611aed57611aec6117ee565b5b602082029050919050565b6000611b0b611b0684611ad2565b61184e565b90508060208402830185811115611b2557611b2461188f565b5b835b81811015611b4e5780611b3a888261176c565b845260208401935050602081019050611b27565b5050509392505050565b600082601f830112611b6d57611b6c6117d8565b5b6001611b7a848285611af8565b91505092915050565b6000806000806101208587031215611b9e57611b9d611746565b5b6000611bac878288016118f4565b9450506040611bbd878288016119a5565b93505060c0611bce878288016118f4565b925050610100611be087828801611b58565b91505092959194509250565b600081519050919050565b600082825260208201905092915050565b6000819050602082019050919050565b611c218161174b565b82525050565b6000611c338383611c18565b60208301905092915050565b6000602082019050919050565b6000611c5782611bec565b611c618185611bf7565b9350611c6c83611c08565b8060005b83811015611c9d578151611c848882611c27565b9750611c8f83611c3f565b925050600181019050611c70565b5085935050505092915050565b60006020820190508181036000830152611cc48184611c4c565b905092915050565b600060a082019050611ce160008301886117ae565b611cee60208301876117ae565b611cfb60408301866117ae565b611d0860608301856117ae565b611d1560808301846117ae565b9695505050505050565b7f4e487b7100000000000000000000000000000000000000000000000000000000600052603260045260246000fd5b7f4e487b7100000000000000000000000000000000000000000000000000000000600052601160045260246000fd5b6000611d888261174b565b91507fffffffffffffffffffffffffffffffffffffffffffffffffffffffffffffffff821415611dbb57611dba611d4e565b5b600182019050919050565b600060029050919050565b600081905092915050565b6000819050919050565b6000602082019050919050565b611dfc81611dc6565b611e068184611dd1565b9250611e1182611ddc565b8060005b83811015611e42578151611e298782611c27565b9650611e3483611de6565b925050600181019050611e15565b505050505050565b600060029050919050565b600081905092915050565b6000819050919050565b600081905092915050565b611e7e81611dc6565b611e888184611e6a565b9250611e9382611ddc565b8060005b83811015611ec4578151611eab8782611c27565b9650611eb683611de6565b925050600181019050611e97565b505050505050565b6000611ed88383611e75565b60408301905092915050565b6000602082019050919050565b611efa81611e4a565b611f048184611e55565b9250611f0f82611e60565b8060005b83811015611f40578151611f278782611ecc565b9650611f3283611ee4565b925050600181019050611f13565b505050505050565b600061014082019050611f5e6000830187611df3565b611f6b6040830186611ef1565b611f7860c0830185611df3565b611f86610100830184611df3565b95945050505050565b611f9881611a8e565b8114611fa357600080fd5b50565b600081519050611fb581611f8f565b92915050565b600060208284031215611fd157611fd0611746565b5b6000611fdf84828501611fa6565b91505092915050565b600082825260208201905092915050565b7f5375626d69747465642070726f6f6620697320696e76616c6964000000000000600082015250565b600061202f601a83611fe8565b915061203a82611ff9565b602082019050919050565b6000602082019050818103600083015261205e81612022565b9050919050565b7f506c61796572207375626d697474656420696e76616c69642070726576696f7560008201527f73206c6f636174696f6e00000000000000000000000000000000000000000000602082015250565b60006120c1602a83611fe8565b91506120cc82612065565b604082019050919050565b600060208201905081810360008301526120f0816120b4565b9050919050565b60006121028261174b565b915061210d8361174b565b9250827fffffffffffffffffffffffffffffffffffffffffffffffffffffffffffffffff0382111561214257612141611d4e565b5b828201905092915050565b7f506c6179657220686173206d6f76656420726563656e746c7900000000000000600082015250565b6000612183601983611fe8565b915061218e8261214d565b602082019050919050565b600060208201905081810360008301526121b281612176565b9050919050565b7f436f6c6c65637420616d6f756e74206d757374206265206c657373207468616e60008201527f20617661696c61626c65207265736f7572636573000000000000000000000000602082015250565b6000612215603483611fe8565b9150612220826121b9565b604082019050919050565b6000602082019050818103600083015261224481612208565b9050919050565b60006122568261174b565b91506122618361174b565b92508282101561227457612273611d4e565b5b828203905092915050565b7f4e487b7100000000000000000000000000000000000000000000000000000000600052603160045260246000fd5b7f4e487b7100000000000000000000000000000000000000000000000000000000600052601260045260246000fd5b60006122e88261174b565b91506122f38361174b565b925082612303576123026122ae565b5b828206905092915050565b600060019050919050565b600081905092915050565b6000819050919050565b6000602082019050919050565b6123448161230e565b61234e8184612319565b925061235982612324565b8060005b8381101561238a5781516123718782611c27565b965061237c8361232e565b92505060018101905061235d565b505050505050565b6000610120820190506123a86000830187611df3565b6123b56040830186611ef1565b6123c260c0830185611df3565b6123d061010083018461233b565b95945050505050565b7f537061776e6564206c6f636174696f6e206973206e6f7420656d707479000000600082015250565b600061240f601d83611fe8565b915061241a826123d9565b602082019050919050565b6000602082019050818103600083015261243e81612402565b9050919050565b7f4c6f636174696f6e20686173206265656e20737061776e656420696e2072656360008201527f656e746c79000000000000000000000000000000000000000000000000000000602082015250565b60006124a1602583611fe8565b91506124ac82612445565b604082019050919050565b600060208201905081810360008301526124d081612494565b9050919050565b60006040820190506124ec60008301856117ae565b6124f960208301846117ae565b9392505050565b600061250b8261174b565b91506125168361174b565b9250817fffffffffffffffffffffffffffffffffffffffffffffffffffffffffffffffff048311821515161561254f5761254e611d4e565b5b828202905092915050565b600081519050919050565b60005b83811015612583578082015181840152602081019050612568565b83811115612592576000848401525b50505050565b60006125a38261255a565b6125ad8185611fe8565b93506125bd818560208601612565565b6125c6816117dd565b840191505092915050565b600060408201905081810360008301526125eb8185612598565b90506125fa60208301846117ae565b9392505050565b6000604082019050818103600083015261261b8185612598565b905061262a6020830184611a9a565b939250505056fea2646970667358221220425f689ffaa6fa7bc9fc6b9d5ab6a434ec21fa2d86a7e50e12b99080a278b22564736f6c634300080a0033",
  "linkReferences": {},
  "deployedLinkReferences": {}
}